:020000040000FA
:020000000000FE
:040002008A0109283E
:0A0006000420052000000000082877
:020010000800E6
:0E0012007E01B8010830B9004001980192004B
:1000200051018F1360308D00063093007F304F01F7
:100030009600F8309700FF3098009900BF309A0082
:020040009B0122
:02004200D128C3
:08004400400198091600980024
:04004C0027289801C8
:08005000082098091600980031
:040058002D289801B6
:04005C0008209809D7
:0400600016009800EE
:0400640033289801A4
:08006800082098091600980019
:040070003928980192
:0800740008209809160098000D
:04007C003F28980180
:08008000082098091600980001
:04008800452898016E
:04008C0008209809A7
:0400900016009800BE
:040094004B2898015C
:080098000820980916009800E9
:0C00A000512898010800980912009800EF
:0400AC005728980138
:0800B0000820980912009800D5
:0400B8005D28980126
:0400BC000820980977
:0400C0001200980092
:0400C4006328980114
:0800C8000820980912009800BD
:0400D0006928980102
:0800D4000820980912009800B1
:0400DC006F289801F0
:0800E0000820980912009800A5
:0400E80075289801DE
:0400EC000820980947
:0400F0001200980062
:0400F4007B289801CC
:0800F80008209809120098008D
:100100008128980108009809683F9800693100002B
:0A0110009801902898091600980045
:06011A008E2898019028D8
:0E0120002920232029209428980916009800F1
:02012E0098280F
:10013000980108009809283F98002931000098018B
:08014000A7289809120098009D
:08014800A5289801A728592001
:0C01500053205920AB2898091200980099
:04015C00AF2898012F
:100160000800E530F00050308400850140019A20FD
:100170009A209A209A209A209A20BE289809283FEF
:100180009800293100009801592053205920C8288F
:060190009809120098001E
:0A019600CC2898010000F00BB728F8
:0201A000080055
:0C01A200DB20E120D7287F016D08F10070
:0201AE007108D6
:0401B0007F01ED00DE
:0C01B40008007F016D08F1000330ED072A
:0201C0006829AC
:0E01C20001304B019E004F309F009C018730A2
:0A01D0009D009E174E018C12ED28D1
:0201DA008C1E79
:0201DC00ED280C
:0201DE008C1281
:1001E0004001CF01CE01CD01CC01CB01CA01FF30CE
:1001F000C900C801C701C601C501C401C301C201CC
:10020000C101C001BF01BE01BD01BC01BB01BA01FA
:02021000B90132
:020212004E019B
:020214008C1E3E
:020216000A29B3
:080218008C12B1204001CF015E
:10022000CE01CD01CC01CB01CA01C901C801C70172
:10023000C601C501C401C301C201FF30C100C00134
:0E024000BF01BE01BD01BC01BB01BA01B90185
:02024E004E015F
:020250008C1E02
:02025200282959
:0C0254008C12B1204001CF01CE01CD0181
:10026000CC01CB01CA01C901C801C701C601C50142
:10027000C401C301C201C101C001BF01BE01BD0172
:0A028000BC01BB01BA01FF30B90058
:02028A004E0123
:02028C008C1EC6
:02028E004629FF
:100290008C12B1204001CF01CE01CD01CC01CB01A8
:1002A000CA01C901C801C701C601C501C401C30112
:1002B000C201C101C001BF01BE01BD01BC01BB0142
:0402C000BA01B901C5
:0202C4004E01E9
:0202C6008C1E8C
:0202C8006329A8
:0602CA008C12B120F028A7
:0802D00071087F01ED00080038
:0202D8006300C1
:020000040001F9
:02000E008C174D
:02001000FE2FC1
:020012009F3F0E
:02001400FF1FCC
:02001600FF3FAA
:00000001FF
